:040000000C94460115
:100004000C9400000C9400000C9400000C9400006C
:100014000C9400000C9400000C9400000C9400005C
:100024000C9400000C9400000C9400000C9400004C
:100034000C9400000C9400000C9400000C9400003C
:100044000C9400000C9400000C9400000C9400002C
:1000540005072060000000000000005F00000007AA
:10006400000700147F147F14242A7F2A1223130804
:10007400646236495522500005030000001C2241E9
:10008400000041221C00082A1C2A0808083E08080F
:100094000050300000080808080800303000002034
:1000A400100804023E5149453E00427F400042612F
:1000B4005149462141454B311814127F10274545BB
:1000C40045393C4A494930017109050336494949D2
:1000D40036064949291E003636000000563600000F
:1000E40000081422411414141414412214080002A8
:1000F40001510906324979413E7E1111117E7F4931
:100104004949363E414141227F4141221C7F4949B0
:1001140049417F090901013E414151327F080808E4
:100124007F00417F41002040413F017F081422416C
:100134007F404040407F0204027F7F0408107F3EDE
:100144004141413E7F090909063E4151215E7F0933
:10015400192946464949493101017F01013F40407F
:10016400403F1F2040201F7F2018207F6314081465
:10017400630304780403615149454300007F41410E
:10018400020408102041417F0000040201020440DF
:1001940040404040000102040020545454787F48F9
:1001A4004444383844444420384444487F38545400
:1001B4005418087E090102081454543C7F080404AE
:1001C4007800447D40002040443D00007F102844D6
:1001D40000417F40007C041804787C0804047838CB
:1001E400444444387C14141408081414187C7C08FF
:1001F4000404084854545420043F4440203C4040E4
:10020400207C1C2040201C3C4030403C44281028CA
:10021400440C5050503C4464544C44000836410053
:1002240000007F0000004136080002010204027F42
:100234004141417F000103070F1F3F7FFF00020080
:10024400020040002000416D6972486F7373656954
:100254006E2041686D616469003937353232323954
:10026400320001002D4E414E00494E460000080068
:1002740004004202130060024A02090073025D0294
:1002840001009C0266020000F894EE27ECBBF1E04A
:10029400FBBFEBBFE5BF8DE0A2E0BB27ED938A95E2
:1002A400E9F780E098E0A0E6ED930197E9F7E2E74B
:1002B400F2E085919591009761F0A591B591059033
:1002C4001590BF01F00105900D920197E1F7FB0134
:1002D400F0CFEFE5EDBFE8E0EEBFC0E6D2E00C946E
:1002E40073012697E0E0EABBEBBBE7BBE8BBE4BBEA
:1002F400E5BBE1BBE2BBE4E5F0E0E883F983E0E0E1
:10030400EA83EB83EC83ED83DE0138D19CD1E5E015
:10031400EA93A0E00E94E706A0E6B2E00E94BB06D2
:10032400E5E0EA93A7E30E94E706A3E7B2E00E94B0
:10033400BB06A0EDB7E00E945F0B85D1EEE1EA9326
:10034400E6E3EA93E2E6EA93A6E30E94F406E2E631
:10035400EA93E6E3EA93E2E60E945A0AEEE1EA93BC
:10036400E0E2EA93EEE1EA93A6E30E94F406E4E114
:10037400EA93E0E2EA93EEE10E945A0AE2E6EA93A3
:10038400E0E2EA93ECE60E945A0AECE6EA93E0E241
:10039400EA93E0E40E945E0AE0E4EA93E5E0EA938B
:1003A400E8E2EA93A4E10E94F406E8E2EA93E4E1D5
:1003B400EA93E8E20E94620AE8E2EA93EAE0EA9356
:1003C400EDE20E94620AEDE2EA93EAE0EA93EDE2EA
:1003D4000E945E0AEDE2EA93E5E0EA93E9E10E9415
:1003E4005E0AE9E1EA93E5E0EA93E9E10E94620A40
:1003F400E9E1EA93EAE0EA93EEE10E94620AEEE1BF
:10040400EA93EAE0EA93EEE1EA93A9E10E94F406B2
:10041400EEE1EA93E9E1EA93E4E10E945A0AA0EDED
:10042400B7E00E945F0B0FD18A92AA92A2E00E94C9
:10043400CF09E2E0F0E0E815F90529F0EEE7F0E095
:10044400E815F90521F4F2010E94690B2F01E2E09D
:10045400F0E0EA15FB0529F0EEE3F0E0EA15FB0510
:1004640021F4F3010E94690B3F01840C951CA60C36
:10047400B71CA6E4B0E00E945F0BD5CFFFCF00000D
:10048400C09A00000895C098C498C59808951A9316
:10049400F6DF19B3C098E12F19910895AA931A931E
:1004A400E0E0EABBC19AC298E981EF5F1E2F10FF1A
:1004B40002C0C49A01C0C49811FF02C0C59A01C009
:1004C400C598E5DFE078E9F718811FC1AA93A981EF
:1004D400E5DF0E94660A19C1E0919A02EA93E0916D
:1004E4009902EF73E064AE2FF1DFE0919A02EA9390
:1004F400E0919B02E86BAE2FE9DF0895AA93E981AE
:10050400E0939902E295EF70E695E695E0939A02FE
:10051400E881E0939B02E0DFF8C0A0919902AF5F0D
:10052400A0939902A03818F0E0E0E0939902E091DA
:100534009902EF7331F4E0919902EA93A0919B023E
:10054400DDDF0895AA93A0919A02A8DFC29A0E94BF
:10055400660A21960895A0919A02A0DFE0E0EABB22
:10056400C19AC29A94DF0895AA93E981EA93E98132
:100574000E946F0AF0DFB0DFEEDFC7C0BA93AA9320
:100584001A93B89AB99ABA9ABB9AC39ABC9ABD9A62
:100594007ADFC398A4E6B0E00E945F0BC39A10E030
:1005A400123040F41A93AFE391DF1A931395A0EC41
:1005B4008DDFF6CFE1E0E0937C02E0E0E0937D02A2
:1005C400E981FA813097A9F0A981BA810E948F0B41
:1005D400E0938002F093810212960E948F0BE093C5
:1005E4009502F0939602A981BA8114960E948F0B0A
:1005F4000AC0E0E0F0E0E0938002F0938102E0932F
:100604009502F0939602E0939702F0939802E1E04A
:10061400E0938202E0938302E0938402EFEFE0939D
:100624008502E1E0E0938C02EDE8F2E0FA93EA93CC
:10063400EFEFEA93A8E0B0E00E94D90904D0E1E02A
:100644001881239608950E94B60B00E030E0E091F3
:100654007D02E03009F00FEF383078F4E0E0EA93FF
:10066400A32F3F5F4BDF10E0A12F1F5FA03820F4C2
:10067400A02F0E94750AF8CFEFCFE0E0EA93A0E044
:100684003DDFE0E0EA93A0E0A0D30E94BD0B2496F6
:100694000895AA931A930A93AC81A03818F4AB81F5
:1006A400A03408F016C0EC81EA93AC815DDF1E2F04
:1006B40013DFEB81E770A1E00E946D0B0E2FEA813E
:1006C400E03011F0102B03C0E02FE0951E23A12F82
:1006D40039DF1981088125960895AA93A981A03844
:1006E40018F4A881A03410F0E0E00FC0E981EA9387
:1006F400A9813ADF1E2EE881E770A1E00E946D0B0C
:10070400E12111F0E1E001C0E0E022960895AA930E
:100714001A93ED81EA93AD8127DF1E2FDDDEE98197
:10072400E73011F0E83039F4EB81EA93AA810E94B2
:10073400F409EB8308C0E33021F4EB81E095EB830B
:1007440002C0E03021F4EA81E0951E2302C0E230C9
:1007540029F4EA81AB81EA231E2B0EC0E13029F48F
:10076400EA81AB81EA231E2707C0E43029F4EA8139
:10077400E095AB81EA2B1E23A12F0E94750A1881F4
:1007840026960895AA9323970E94B40BA889A038AB
:1007940048F4AF85A03430F4AE85A03019F0AD85AF
:1007A400A03009F4C8C1EE85E887A889BB27EE8587
:1007B400F0E0AE0FBF1FA138E0E0BE0720F0A8892B
:1007C400E0E8EA1BEE872D85AF85BB27ED85F0E0D9
:1007D400AE0FBF1FA134E0E0BE0720F0AF85E0E418
:1007E400EA1BED87A985A63009F05BC0EC85E130F2
:1007F40009F4A1C1E33039F4E0919702F091980231
:10080400309709F498C10885ED85E695E695E69557
:100814003E2FE22FE77019F4AD852A17E9F0A02FD7
:10082400BB27E32FF0E00E94870BAA85BB850E94BB
:10083400790A269526952695532F5F935F5FE22FBD
:10084400AF91EA1748F0102FE12F1150E03019F062
:100854000E947E0AF9CFF1CFAE850A1711F1EE8519
:10086400AA85BB85F0E00E94790AED85E77009F05E
:100874003F5F20E02F932F5FE32FAF91AE1788F4F3
:100884001E851F931F5FE02FAF91AE1718F40E94CF
:100894007E0AF7CFEE85AE81BF81F0E00E94790A2F
:1008A400E9CFEF85E7703E2FED85E03009F443C1D1
:1008B400EA85FB85EE83FF8310E00889303009F078
:1008C40065C0AD85A83008F45CC0E985E03011F05E
:1008D400E33009F402C0E73009F402C0E83009F457
:1008E40002C0E63009F402C0E93009F402C0EA307B
:1008F40021F40A93E8890E946F0A1F931F5FEE8513
:10090400AF91AE17B8F5A985A63061F424DEE4DD15
:100914000E948B0AFA93EA931EDEAE2F0E943B0AD2
:10092400FCDD27C0E985E93011F450E00EC0EA305F
:1009340011F45FEF0AC00E948B0A0E94940A5E2F92
:10094400E985E73011F0E83021F40E949A0A5E2F1D
:1009540006C0E33011F4509502C0E03021F4A52F15
:100964000E94750A06C00E949E0AEFEFEA93AD85C5
:10097400CEDEC3CFEF85E85FEF87ED85E850ED87E6
:10098400D1C05D8520E0E0E0ED877AC0E32FAD853E
:10099400AE0FA93020F42D85E0E0ED8703C0E8E038
:1009A400E31B2E2F3A93A22F0E94E9094E2FE985CB
:1009B400E630F1F41F931F5FEE85AF91AE17B8F4E4
:1009C4000E94A40AAE2FE32F0E94750B0E94AB0A6B
:1009D400E32FA42F0E94750BE095E1215E2B0E946A
:1009E4008B0AFA93EA93A52F0E943B0AE3CF2CC00B
:1009F400E93011F450E003C0EA30A9F45FEF0E943B
:100A04009A0AAE2FE32F0E946D0B5E2F1F931F5F78
:100A1400EE85AF91AE1730F40E949E0A4A93A0E08F
:100A240076DEF4CF11C01F931F5FEE85AF91AE1732
:100A340058F40E94B60AAE2FE32F0E946D0BEA937E
:100A44004A93AD8564DEEFCFED85E03009F473C0E1
:100A5400AD85A83028F4ED85E21B5E2FE0E003C0ED
:100A6400532FED85E850ED8710E0EF85E85FEF87C1
:100A7400E8E0E31B2E2F0889EA85FB85EE83FF83DC
:100A8400E52FF0E0E85CFD4F4491E985E630F1F4B0
:100A94001F931F5FEE85AF91AE17B8F40E94A40AAE
:100AA400AE2FE22F0E946D0B0E94AB0AE22FA42FFF
:100AB4000E946D0BE095E1215E2B0E948B0AFA9354
:100AC400EA93A52F0E943B0AE3CF2CC0E93011F42E
:100AD40050E003C0EA30A9F45FEF0E949A0AAE2FF7
:100AE400E22F0E94750B5E2F1F931F5FEE85AF915F
:100AF400AE1730F40E949E0A4A93A0E008DEF4CFB9
:100B040011C01F931F5FEE85AF91AE1758F40E947A
:100B1400B60AAE2FE22F0E94750BEA934A93AD8575
:100B2400F6DDEFCFE885AA85BB85F0E0EA0FFB1F71
:100B3400EA87FB87B9CE0E94BB0B619608950E9499
:100B4400C30A24F0E0E0F0E00C94F209A881B98132
:100B5400A038E0E0BE0724F0EFE7F0E00C94F209DF
:100B6400E881F9810C94F2090E94C30A24F0E0E0C0
:100B7400F0E00C94F209A881B981A034E0E0BE074A
:100B840024F0EFE3F0E00C94F209E881F9810C948D
:100B9400F209AA93E981EA93E981EA93A0917C029C
:100BA40078DD0C94F209BA93AA9323970E94CA0A97
:100BB4008F01002E012A19F4E0E0F0E05FC00E94EA
:100BC400D10A0F820E94D10A0E820E94D10A08869D
:100BD400EB85A885EA1718F4E0E0F0E04FC0F801CF
:100BE4000F5F1F4F5491A885BB27EE27A50FBE1F8B
:100BF400EB85F0E0EA17FB0718F0E0E0F0E03EC018
:100C0400EE81E695E695E6954E2FEE81E77009F0C4
:100C14004F5FEF81E030A1F0A985BA85EC93A885F8
:100C2400EB85EA1BF0E0DF01EF81F0E00E94870B27
:100C3400DF01E42FF0E00E94870BE00FF11F1EC0DC
:100C44009801E52FF0E00E0F1F1FA885AF5FA8875E
:100C5400A150EB85AE1760F4F9012F5F3F4FA491CB
:100C6400B0E0E42FF0E00E94870B0E0F1F1FEDCFC2
:100C7400F901E491A985BA85EC93F8010E94BB0BB4
:100C84002C960895E0E0E0937E02A0917F02BB27BA
:100C94000E94D60AF0E0AE0FBF1FE0918302F0E09D
:100CA400AE0FBF1F61DFE0937F020895AA932197DF
:100CB4000E94CA0A309709F457C0AF81AA3009F4D8
:100CC4004FC0EF81EA93DE0117966DDFAF013097D5
:100CD40019F40E94BB0B02C3E0918202AE81EA0FB9
:100CE4003E2FA0917E02BB270E94DD0A0138E0E07E
:100CF4001E0718F0032F1127C5DFE0917E02EA9347
:100D0400E0917F02EA93E885EA930E94D60AEA9387
:100D1400E1E0EA935A934A93A7E034DDE0917E023E
:100D2400AE81EA0FEA93E0917F02EA93E0918202B6
:100D3400EA930E94D60A0E94E20AE0917E02EA93B4
:100D4400A0917F020E94D60AEA0FEA933A93E091B7
:100D540083020E94E20AE0E8F0E0E017F10721F4E0
:100D640091DF0E94BB0BBAC200937E020E94BB0BB0
:100D7400B5C2BA93AA931A93A981BA81ED91A983B2
:100D8400BA831E2FE03019F0A12F90DFF5CF188120
:100D94000C94390AAA93EA81EA93EA81EA93E091EE
:100DA4008502AA81EA2319F0E0917C0202C0E09155
:100DB4007D02AE2F6EDCE881EE0FE883E03011F4A3
:100DC400E1E0E883E8810C94390AAA93A981BB275E
:100DD400B6DEE0937E02A881BB27C6DEE0937F02E5
:100DE4000C94F209AA932B970E94B40BAC89BB27ED
:100DF400A6DEEC8BAA89BB27A2DEEA8BAB89BB27D4
:100E0400B3DEEB8BA989BB27AFDEE98BEA89E093DC
:100E14007E02E989E0937F02E1E0E887E989AB8912
:100E2400EA1771F51C89AA891A1731F41A93EC8907
:100E3400EA93A1E0AFDFC8C0AA891A1730F4EA899F
:100E4400E11B0E2F41E050E006C0AA89E12FEA1B06
:100E54000E2F4FEF5FEF3B89E0E0EE830E94EC0A38
:100E640038F41A933A933395AA8594DFEF83F6CF37
:100E7400EF81E887140FE02F0150E03061F7A4C040
:100E8400EA89AC89EA1739F53B89A9893A1730F41C
:100E9400E989E31B2E2FE1E0F0E006C0A989E32FE6
:100EA400EA1B2E2FEFEFFFEFED87FE871C89E0E0B2
:100EB400EE830E94EC0A30F41A9313950E94F40A0C
:100EC400EF83F7CFEF81E887ED853E0FE22F2150C6
:100ED400E03061F779C0E0E0EE830E94EC0A08F0AC
:100EE40073C01C893B89E1E02E2F0E2FAA89BB27F2
:100EF400EC89F0E0AE1BBF0BAD0155232AF40FEFD4
:100F0400FA010E94690BAF01FA01EE0FFF1FEF8790
:100F1400F88BA989BB27EB89F0E0AE1BBF0BAD872B
:100F2400BE87AE85AA233AF42FEFED85FE850E9495
:100F3400690BED87FE87ED85FE85EE0FFF1FEB87BE
:100F4400FC871A933A93A1E025DFE887E0E0E9877C
:100F5400EA87AD85BE854A175B07BCF0100FEB85A9
:100F6400FC850E94F80AA985BA854A175B072CF408
:100F7400320FAF85B8890E94FF0A1A930E94F40ABF
:100F8400E887EA89E11751F718C0320FEF85F8892D
:100F94000E94F80AED85FE85A985BA85EA17FB0744
:100FA4002CF4100FAB85BC850E94FF0A1A930E9493
:100FB400F40AE887E989E31741F7EB89EF5FEB8BE4
:100FC400E989EF5FE98B89CF0E94BB0B6596089591
:100FD400BA93AA9323970E94B40BED85E887E09116
:100FE4008402EF83E0917C02EE83AA89BB27EF851C
:100FF4000E94DD0AA989BB27E8890E94060BE889BB
:101004000E940D0B71F0E885E078F1F4AD85BE85A2
:10101400EAE5F0E00E94150B1CF00E941E0B0CF494
:1010240013C0332312F00E94230BAF81A23020F0AF
:101034002230E0E03E070CF407C00E94270B21F4A5
:101044000A93A22FA150A5DDE885E878E83891F04D
:10105400E885E078C9F4AD85BE85A25FBE4F0E94E5
:10106400300B3CF0AD85BE85A25FBE4F0E94350BB0
:101074000CF40AC00E943A0B38F00E94410B21F490
:101084000A93A42FAF5F85DDAA89BB27EF85F0E023
:10109400AE1BBF0B8D0111230AF445C0E885E2782D
:1010A400E23891F0E885E07811F5AD85BE85A65A61
:1010B400BF4F0E94300B3CF0AD85BE85A65ABF4F92
:1010C4000E94350B0CF413C0332312F00E94230B3F
:1010D400AF81A23020F02230E0E03E070CF407C0DC
:1010E4000E94270B21F40A93A22FA15052DDE88518
:1010F400E478E43871F0E885E078A9F4AD85BE853C
:10110400EEE0F1E00E94150B1CF00E941E0B0CF4A3
:101114000AC00E943A0B38F00E94410B21F40A9352
:10112400A42FAF5F36DDAA89BB27E8890E94DD0AB8
:10113400A989BB27EF850E94060BEF850E940D0B42
:1011440081F0E885E078F1F4EB85FC85AD85BE851A
:10115400AE17BF072CF0E985FA85EA17FB070CF4F4
:1011640011C033237AF00E94230BAF81A23050F0D8
:10117400E02FEE5F0E944A0B29F4E02FEF5FEA9321
:10118400A22F07DDE885E878E83871F0E885E07893
:10119400C1F4AD85BE85E8E6F1E00E94150B1CF0B4
:1011A4000E941E0B0CF40DC00E943A0B50F0E02F6D
:1011B400EE5F0E94520B29F4E02FEF5FEA93A42F15
:1011C400E8DCAA89BB27E889F0E0AE1BBF0B8D01E0
:1011D40011230AF450C0E885E278E23871F0E8851A
:1011E400E07809F5AD85BE85E4EBF0E00E94150BCF
:1011F4001CF00E941E0B0CF416C03323A2F00E94B4
:10120400230BAF81A23020F00230E0E01E070CF483
:101214000AC0E02FE2500E944A0B29F4E02FE1506B
:10122400EA93A22FB6DCE885E478E43891F0E88507
:10123400E07809F5AD85BE85AC54BF4F0E94300BF4
:101244003CF0AD85BE85AC54BF4F0E94350B0CF409
:1012540012C00E943A0B20F00230E0E01E070CF4AA
:101264000AC0E02FE2500E94520B29F4E02FE15013
:10127400EA93A42F8EDC0E94BB0B63960895AA9375
:101284000E94B60BAF81BB27ED81F0E0AE1BBF0B14
:1012940056DC1E2FAF81BB27ED81F0E0AE0FBF1FE0
:1012A4004EDC0E2FAE81BB27EC81F0E0AE1BBF0BF2
:1012B4005BDC3E2FAE81BB27EC81F0E0AE0FBF1F9D
:1012C40053DC2E2F1A933A930A93A32F8BDD1A9390
:1012D4002A930A93A22F86DD0E94BD0B28960895B7
:1012E400AA930E94B40BA985A03818F4A885A03449
:1012F40008F04FC050918402E52F5150E03009F4BA
:1013040048C0EF81E03009F444C0EF81E150EF833D
:10131400EF5F0E2FF0E0A5E0B0E0AE1BBF0BFD01C8
:101324000E947D0B0E94820B9F0110E0AE81A034CD
:1013340059F40E945A0B1A93A02FA1DF0E945A0B52
:101344000A93A12F9CDF0FC00E945A0B1A930A9391
:10135400EA85F0E0FA93EA93E0E0F0E0FA93EA93A6
:10136400A0E0B0E035DE1F5F33231AF4E12FF0E094
:1013740008C00150A12FBB27E02FF0E0AE1BBF0B2C
:10138400FD01EE0FFF1F31962E0F3F1F011770F660
:10139400B3CF0E94BB0B2A960895AA93EA81EA93DD
:1013A400EA81EA93EA81EA93AFE89ADF60C0BA93EC
:1013B400AA93B981A881109631F0FC81EB816A81EE
:1013C40061931197E9F7EB81FC8125960895AA931F
:1013D400E881F0E0E85CFD4FA491E9810E946D0B87
:1013E40022960895AA931A93E981E73011F0EA301E
:1013F40019F410917C0209C0E93019F410917D02AE
:1014040004C0E830A1F410918C02E0917D02E03038
:1014140049F0103019F0EFEF188129C0EA81E09506
:10142400188125C0103019F4E0E0188120C0EA8149
:1014340018811DC0BA93AA93EA81E13021F4E881AE
:10144400F981E49114C0E23029F4A881B9810E94A1
:10145400930B0DC0E33041F4A881B981E09195026A
:10146400F0919602099503C0A881B981EC91239665
:101474000895AA93EB81E03029F4E881A981BA8127
:10148400EC9314C0E23031F4E881A981BA810E945E
:101494009F0B0CC0E33051F4E981FA81FA93EA938B
:1014A400AA81E0919702F0919802099524960895F3
:1014B400EA93A0E20C94F406EA93A5E00C94F406F3
:1014C400EA93AAE00C94F406C198EFEFEABBE88132
:1014D400EBBB0E9441020C944502E695E695E69525
:1014E400AE2F0C9480020E94A4020C948F02EA0F87
:1014F400FB1FEE83FF830895EC85EA93EF81F88563
:101504003196EF83F8873197FA93EA93A0E00C942D
:101514003B0AEC85EA93EF81F8853196EF83F887EF
:101524003197089566277727DF01CB010C941C0AB5
:101534005A93AA850C94F4090A930395E889EA93CB
:101544005A9308950A930395A8890E94B602E42346
:1015540008955E2FEC85EA93AF81B8858827992793
:101564000E941C0A1E2E08950A930395E889EA93A3
:10157400EE85EA93E985FA853196E987FA8731970A
:10158400D1CFBA93AA93A881B9810E94B00B0895D0
:101594000E94B40BE0918002F09181020895F80159
:1015A4000F5F1F4F04900895E0918002F091810233
:1015B4003196E4910895F0E0EA0FFB1F8F0108953E
:1015C400EA93E0E0EA93E0E0F0E0FA93EA93A9E03A
:1015D4000C94C403AE81AF5FAE83A150E09184024A
:1015E400AE1708953A93AA850C94CC06A985BA85BA
:1015F400EA0FFB1FE987FA870895E985FA85EA1B54
:10160400FB0BE987FA870895F0E0AE1BBF0B9D0141
:10161400A989BB270895F0E0EA0FFB1FAF01E88515
:10162400E178E1380895EA1BFB0B0F01DF01EB853C
:10163400FC85AE17BF070895E985FA85E015F10525
:1016440008950A93A22F0C94CB050A93A22FA250BB
:101654000E946F03AE2FEE81EA170895EB85FC8597
:10166400AE17BF070895E985FA85EA17FB070895C1
:101674000A93A42F0E94CB05AF81A23008950A9348
:10168400A42FAE5F0E946F03AE2FEE81EA17089578
:10169400EA93A22F0E946F03AE2FEE81EA170895FA
:1016A400EA93A42F0E946F03AE2FEE81EA170895E8
:1016B400E985EA93E985EA930895109639F080ED77
:1016C40097E00197F1F7A8951197C9F70895F19557
:1016D400E195F0400895EE230E2EEA2F19F0EE0F57
:1016E4000A94E9F70895EE230E2EEA2F19F0E695F1
:1016F4000A94E9F70895EE0FFF1FEE0FFF1F0895F8
:10170400F595E795F595E7950895FA9FF02DEB9FEC
:10171400F00DEA9FE02DF10D0895ED91FC911197E4
:101724000895E199FECFFF93FFB7F894AEBBBFBB1A
:10173400E09AEDB3FFBFFF910895E19B02C0A89525
:10174400FCCF9FB7F894AEBBBFBBE09A8DB3E8174C
:1017540019F0EDBBE29AE19A9FBF089500240A169E
:101764000B0608955A934A933A932A931A930A9329
:1017740008955D814C813B812A81198108810895F6
:00000001FF
