:100000000C944A000C9400000C9400000C94000026
:100010000C9400000C9400000C9400000C94000060
:100020000C9400000C9400000C9400000C94000050
:100030000C9400000C9400000C9400000C94000040
:100040000C9400000C9400000C9400000C94000030
:100050000C9400004B455950414420414E44204CE3
:1000600043440050524F4A454354000080C00100B1
:100070002D4E414E00494E4600000F0060025400D4
:1000800008006F026300020088026C0001008C020D
:100090006E000000F894EE27ECBBF1E0FBBFEBBF75
:1000A000E5BF8DE0A2E0BB27ED938A95E9F780E0FC
:1000B00098E0A0E6ED930197E9F7EAE7F0E0859193
:1000C0009591009761F0A591B59105901590BF01AC
:1000D000F00105900D920197E1F7FB01F0CFEFE5FC
:1000E000EDBFE8E0EEBFC0E6D2E00C947700EFEFA2
:1000F000E4BBEFE0E1BBE0E0E5BBA0E17DD14AD1AC
:10010000E1E00E944C03A0E6B2E065D1E5E0EA93AD
:10011000A1E033D1AFE6B2E05ED1A0EDB7E00E943E
:10012000320438D1B5D01E2F1F3F09F4AFC0B0D074
:10013000EF3FE9F7A4E1B0E00E9432041F3041F440
:1001400029D1E0E00E944C030E94500366247724EA
:10015000062C072871F41A3058F41CD1E0E00E94F4
:100160004C030E9450030E946B03E1E0F0E03F016A
:100170008DC0E1E0F0E0E615F70509F51A3018F456
:100180000E946B031BC01A3021F4A5E20FD1E5E2F7
:1001900011C01B3021F4AAE209D1EAE20BC01D30E4
:1001A00021F4ADE203D1EDE205C01C3039F4ABE23D
:1001B000FDD0EBE25E2EE2E0F0E03F0167C0E2E05E
:1001C000F0E0E615F70541F41A3028F40E949E038A
:1001D000E3E0F0E03F015AC0E3E0F0E0E615F705A8
:1001E00009F054C01A3018F40E949E034FC01E300C
:1001F00009F04CC0ADE3DAD0E5E2E51529F40E9440
:10020000D1030E94800525C0EAE2E51529F40E9489
:10021000D1030E9432051DC0EDE2E51599F4A091CD
:100220007B02B0917C0280917D0290917E02E091F0
:100230007702F09178026091790270917A020E94BF
:10024000DB0407C0EBE2E51561F40E94D1030E94D4
:10025000E204E0937F02F093800260938102709346
:100260008202E0917F02F0918002609181027091A0
:1002700082020E940106E2E0EA93A3E8B2E00E9453
:100280002A02A3E8B2E0A7D0662477244BCFFFCFA1
:100290001A931FEF909A91980E94E203849B02C0E8
:1002A00017E00AC0859B02C018E006C0869B02C00A
:1002B00019E002C087991AE09098919A0E94E2038F
:1002C000849B02C014E00AC0859B02C015E006C0F2
:1002D000869B02C016E002C087991BE09098919817
:1002E000929A9398A5E0B0E00E943204849B02C0E9
:1002F00011E00AC0859B02C012E006C0869B02C0C6
:1003000013E002C087991DE0909891989298939A73
:10031000A5E0B0E00E943204849B02C01FE00AC046
:10032000859B02C010E006C0869B02C01EE002C092
:1003300087991CE0E12F19910895AA93E5B3EF7016
:10034000AE2FE881E07FEA2BE5BB8DE08A95F1F7DF
:10035000AA9A8DE08A95F1F7AA988DE08A95F1F72F
:1003600077C0AA93A881E9DFE881E295E883A881B4
:10037000E4DF85E88A95F1F76BC0AA93E881F0E0A5
:10038000E857FD4FE081A981AE0FEBDF49809880EF
:1003900022960895A2E00E94E803ACE0E2DFA1E02B
:1003A0000E94E803E0E09E2E4E2E0895AA93A881B5
:1003B000AA3011F0481448F0E0E0EA939394A92D94
:1003C000DCDFA881AA3009F443C04394A89AA8812D
:1003D000C8DFA8983DC0BA93AA931A93A981BA819D
:1003E000ED91A983BA831E2FE03019F0A12FDEDF33
:1003F000F5CF188123960895AA93E4B3E06FE4BB88
:10040000A29AA09AA19AAA98A898A9988880E88107
:10041000E058E0938A02E881E054E0938B02A4E183
:10042000B0E00E9432040E94EE030E94EE030E949C
:10043000EE03A0E282DF88EC90E00197F1F7A8E2FA
:1004400090DFA4E08EDFA5E88CDFA6E08ADFA2DFE4
:1004500021960895BA93AA932497E0E0E883E9836C
:10046000EA83EFE3EB831A930A93EB85FC85EF3F76
:10047000AFEFFA0739F40E94F603A0E7B0E00E945C
:100480003F03B1C0EF3FAFE7FA0739F40E94F6032C
:10049000A1E7B0E00E943F03A6C0AC85AA2362F4A6
:1004A000E985FA856B857C850E943C040E94FB03EC
:1004B0000E940004EDE2EC93A885A73010F0E6E07E
:1004C000E8871885E12F1150E03039F00E940704C9
:1004D0000E940C040E941304F5CF0E9418040E948D
:1004E000E2040E94FB0310E0E0E0F0E060E87FE35C
:1004F0000E9413040E9418040E94C50588F00E94FF
:1005000007040E9421040E9413041F5F173238F071
:100510000E94F603A5E7B0E00E943F0364C0EACF63
:10052000103029F40E940004E0E3EC932FC0E12F87
:100530001150E03059F10E9407040E940C04A0E021
:10054000B0E080E09FE30E94E204DF01CB010E9463
:1005500028030E9413040E9418040E9480050E9430
:100560006F040E2F0E940004E02FE05DEC93E02F5B
:10057000F0E00E9407040E94ED050E94A8040E947A
:1005800032050E9428040E942D04D1CFE885E03076
:1005900031F10E940004EEE2EC93E885E150E88737
:1005A000EF5FE9F00E9428040E9421040E94FB03EF
:1005B000E985FA856B857C850E946F040E2F0E9469
:1005C0000004E02FE05DEC93E02FF0E00E942804AF
:1005D0000E94ED050E94A8040E942D04DECFAE818A
:1005E000BF81E0E0EC93198108812D9608950E9467
:1005F00006067B816A81F981E88177FB770F67FDC9
:100600007160972F9E5781F078F0983190F4AA2767
:10061000BB27882708948795B795A7959A95D1F712
:10062000EA23FB23682305C0E8947727EE27FF27FA
:1006300066276F77769508F4606877F9A991B99184
:1006400089919991EA17FB076807790797FB089545
:100650000E9406060E94F7050E94F7020E94FC0510
:1006600019F40E94F20509C0E6F70E94F205A0E025
:10067000B0E080E89FE30E94DB0424960895BA93DB
:10068000AA93E991F991A991B991CD0105900D92A3
:100690000020E1F7FC010895EA93A0E00C94BD016D
:1006A000E0E0E0937702E0937802E0937902E09350
:1006B0007A02E0937B02E0937C02E0937D02E09378
:1006C0007E02E0937F02E0938002E0938102E09358
:1006D000820255240895A12FA05D0E94D601A09109
:1006E0007702B09178028091790290917A02E0E0ED
:1006F000F0E060E271E40E943205E0937702F0934B
:1007000078026093790270937A02E12FF0E0A09171
:100710007702B09178028091790290917A020E94DA
:10072000ED050E94A8040E94E204E0937702F09392
:1007300078026093790270937A020895A12FA05DE8
:100740000E94D601A0917B02B0917C0280917D0233
:1007500090917E02E0E0F0E060E271E40E943205F8
:10076000E0937B02F0937C0260937D0270937E02A3
:10077000E12FF0E0A0917B02B0917C0280917D029C
:1007800090917E020E94ED050E94A8040E94E2045E
:10079000E0937B02F0937C0260937D0270937E0273
:1007A0000895E0917B02F0917C0260917D0270914E
:1007B0007E02A0917702B0917802809179029091A7
:1007C0007A02089592989398A5E0B0E00C943204D0
:1007D0000E94B101A3E0B0E00C943204A0E30E94B7
:1007E0009D0188EC90E00197F1F70895EE81FF817B
:1007F000FA93EA930895E987FA876B877C870895CF
:10080000AE81BF811196AE83BF8311970895AA81EF
:10081000BB818C819D810895EDECFCEC6CEC7DE35B
:100820000E9432050895EA83FB836C837D830895DB
:10083000EA81FB816C817D81A985BA858B859C8548
:100840000895E0E0F0E060E271E40E94320508956E
:10085000A985BA858B859C8508950E940B060E9408
:10086000DB04C9CF109639F080ED97E00197F1F7DE
:10087000A8951197C9F7089530976040704009F026
:1008800070580895552342F4503811F4E0FF04C025
:100890003196691F791F6BF050E8572711F45F9369
:1008A000CFC05F3F31F0660F000C57956795752FED
:1008B00008955F9300200AF0CFC0C8C050E8192EF9
:1008C0001522880F991F9527550F879550E8072EF9
:1008D0000522660F771F7527550F67950895689451
:1008E00001C0E8945F93F2DF703818F07F3F08F49E
:1008F000A7C056E1571BAAF4519558300EF4593051
:1009000030F0EFEFFFEF6FEF7FE777F91AC077274F
:100910005523B9F0EE0FFF1F661F771F5A95D1F7C9
:1009200010C07727583028F0EF2FF62F672F585038
:10093000F9CF552331F076956795F795E7955A9558
:10094000D1F700200AF441D15F910895689401C065
:10095000E894309760407040B1F0002426F077238F
:1009600012F4009432D1172E7EE1112032F07A95E4
:10097000EE0FFF1F661F111CF9CFEF2FF62F612D11
:100980005F938ADF5F9108954F93AF01FD01DA0114
:10099000AB01BC01CA01402D012C142E4F910895CA
:1009A000EA0FFB1F681F0895E095F0956095EF5FD3
:1009B000FF4F6F4F08955F9381DF903871F150E8DA
:1009C000152604C05F937ADF903839F1703821F131
:1009D000572F591B2BF112F4D7DFFACF583118F0EB
:1009E000AA27BB278827583028F0AB2FB82F882795
:1009F0005850F9CF552329F08695B795A7955A9564
:100A0000D9F7502D512572F0CBDF38F46795F79563
:100A1000E795739513F420C0B7DF3EDF5F9108952B
:100A2000D8F7FBCFEA1BFB0B680B51F010F40094D6
:100A3000BBDF662392F3EE0FFF1F661F7A95CBF79D
:100A4000EE27FF27662777275F910895EFEFFFEFE7
:100A50006FE77FEF5F910895EFEFFFEF6FE77FE7BD
:100A60005F9108955F932ADF703851F3903841F316
:100A700001240894791F23F41CF300203AF3ECCFEF
:100A80000F921F932F933F934F931127222799275C
:100A9000689FA0018F9F302D410D591F6B9F300D16
:100AA000411D591F8E9F27D0BF9F25D06A9F23D0FD
:100AB000BE9F1DD0AF9F1BD0AE9F110D291F391FA8
:100AC000491F591FE32FF42F652F522F4F913F914C
:100AD0002F911F910F9066232AF0550FEE1FFF1FD5
:100AE000661F02C073954BF2CDDE5F910895100D25
:100AF000211D391F02C0200D311D491F591F0895A6
:100B00005F93DCDE703821F411200AF49FCFA4CF6C
:100B1000903809F495CF01240894970B1BF4D4F373
:100B20000020F3CF792F1F932F933F934F931124DE
:100B30001127222733274427552790E2AE17BF07F6
:100B40008607410730F0AE1BBF0B860B410B0894A4
:100B500001C08894551F221F331F111CAA1FBB1FE1
:100B6000881F441F9A9551F7F901612D4F913F91CC
:100B70002F911F91662332F0550FEE1FFF1F661F46
:100B80007A9543F27FDE5F91089599239AF0772357
:100B900042F0971748F029F4AE17BF07860720F0F8
:100BA00031F098948894089598940894089518942E
:100BB000889408957723C2F7971798F3A9F7EA174F
:100BC000FB07680788F399F3ECCFF0956095709573
:100BD000E195FF4F6F4F7F4F08956F2F660F660BA4
:100BE000762F0895E881F9816A817B810895A88133
:100BF000B9818A819B810895E883F9836A837B8325
:100C000008957A936A93FA93EA9308959A938A934C
:100C1000BA93AA930895182E862F612D192E972F17
:100C2000712D1B2EBF2FF12D1A2EAE2FE12D089501
:00000001FF
