:0E0000000C9455000C9400000C9400000C941D
:10000E0000000C9400000C9400000C9400000C9462
:10001E0000000C9400000C9400000C9400000C9452
:10002E0000000C9400000C9400000C9400000C9442
:10003E0000000C9400000C9400000C9400000C9432
:10004E0000000C9400000000000000000000000002
:10005E0000000000007F0909090100007F4949499D
:10006E004100007F4141413E00003E41414122009E
:10007E00007F4949493600007C1211127C000000B5
:10008E000000000000000000000000000102040853
:10009E0010204080080060029A000000F894EE27BD
:1000AE00ECBBF1E0FBBFEBBFE5BF8DE0A2E0BB27F1
:1000BE00ED938A95E9F780E098E0A0E6ED9301973D
:1000CE00E9F7E2EAF0E085919591009761F0A5914C
:1000DE00B59105901590BF01F00105900D92019715
:1000EE00E1F7FB01F0CFEFE5EDBFE8E0EEBFC0E6D4
:1000FE00D2E00C948200E0E0E8BBEFEFE7BBE0E07B
:10010E00E5BBEFEFE4BBE0E0E2BBEFEFE1BBE0E02D
:10011E00E3BFE2BFECBFEFBDEEBDEDBDECBDE7BD95
:10012E00E6BDEBBDEABDE9BDE8BDE2BDE5BDE4BDA2
:10013E00E3BDE9BF88249924E7E3F0E08E169F061D
:10014E00ECF566247724EFE0F0E06E167F0694F56A
:10015E0044245524E8E0F0E04E165F0674F4A0E661
:10016E00B2E0A40DB51DEC91E2BB2AD0EC5AFF4FC4
:10017E002ED0F20131962F01EDCFE0E0E2BB442408
:10018E005524E8E0F0E04E165F0674F4A0E6B2E007
:10019E00A40DB51DEC91E8BB13D0E45AFF4F17D058
:1001AE00F20131962F01EDCFE0E0E8BBF30131967D
:1001BE003F01C9CFF40131964F01BECFBBCFFFCF68
:1001CE00E6E3F0E0E819F909E40DF51D0895E49170
:1001DE00E095E5BBA1E0B0E00C94F500109639F087
:1001EE0080ED97E00197F1F7A8951197C9F708955B
:00000001FF
