:060000000C944B000C946F
:1000060000000C9400000C9400000C9400000C946A
:1000160000000C9400000C9478000C9400000C94E2
:1000260000000C9400000C9400000C9400000C944A
:1000360000000C9400000C9400000C9400000C943A
:1000460000000C9400000C9400000C940000102793
:10005600E80364000A00010000100001100001001E
:1000660017003A00000000004C434420436C6F63C5
:100076006B00256420002564000080C00800040091
:1000860066000A0060026E0002008A02800000001C
:10009600F894EE27ECBBF1E0FBBFEBBFE5BF8DE0CC
:1000A600A2E0BB27ED938A95E9F780E098E0A0E609
:1000B600ED930197E9F7E2E8F0E0859195910097D5
:1000C60061F0A591B59105901590BF01F0010590DD
:1000D6000D920197E1F7FB01F0CFEFE5EDBFE8E008
:1000E600EEBFC0E6D2E00C94A900EA93FA93EFB70C
:1000F600EA93F50131965F01EAE0F0E0EA15FB05C7
:1001060001F5AA24BB24F40131964F01ECE3F0E09B
:10011600E815F905B1F488249924F30131963F01D5
:10012600ECE3F0E0E615F70561F466247724F201C6
:1001360031962F01E8E1F0E0E415F50511F44424C9
:100146005524E991EFBFF991E9911895E0E0E5BBF7
:10015600EFEFE4BBE0E0E4BBEFBDE2E0EEBDEFECC9
:10016600EDBDECE2ECBDE0E0E7BDE6BDEBBDEABD12
:10017600E9BDE8BDE2E1E9BFA0E1A4D0E4E0EA938D
:10018600A0E05FD0A0E6B2E08CD07894E3E00E94D5
:1001960055030E945903F2010E946203E5E00E94A2
:1001A6005503AAE367D0E6E00E9455030E9459036F
:1001B600F3010E946203E8E00E945503AAE35AD0C5
:1001C600E9E00E9455030E945903F4010E9462036C
:1001D600EBE00E945503AEE24DD0ECE00E945503E1
:1001E600EAE6F2E0FA93EA93ECE7F0E0FA93EA93B0
:1001F600D501EAE0F0E00E94D2030E946203C6CF76
:10020600FFCFAA93E5B3EF70AE2FE881E07FEA2B2C
:10021600E5BB8DE08A95F1F7AA9A8DE08A95F1F70C
:10022600AA988DE08A95F1F77AC0AA93A881E9DFAA
:10023600E881E295E883A881E4DF85E88A95F1F70D
:100246006EC0AA93E881F0E0E657FD4FE081A981F0
:10025600AE0FEBDFD980C88022960895A2E00E94F7
:100266006E03ACE0E2DFA1E00E946E03E0E0CE2E7A
:10027600DE2E0895AA93A881AA3021F0E0918E027D
:10028600DE1648F0E0E0EA93C394AC2DDADFA881ED
:10029600AA3009F444C0D394A89AA881C6DFA898C6
:1002A6003EC0BA93AA931A93A981BA81ED91A98304
:1002B600BA831E2FE03019F0A12FDCDFF5CF1881AD
:1002C60023960895AA93E4B3E06FE4BBA29AA09A9A
:1002D600A19AAA98A898A998E881E0938E02E05876
:1002E600E0938C02E881E054E0938D02A4E1B0E053
:1002F6000E94A8030E9474030E9474030E94740360
:10030600A0E27FDF88EC90E00197F1F7A8E28DDFAD
:10031600A4E08BDFA5E889DFA6E087DF9FDF2196D3
:100326000895BA93AA931A930A93AA81BB81129647
:100336000E94E003309759F1AA81BB8114960E946E
:10034600E0038F01309761F00230E0E01E0798F07D
:10035600F80131978F01AA81BB811496ED93FC9326
:10036600AA81BB811296ED91FD913196FE93EE9393
:100376003197AC81A083AA81BB810E94E003FF2351
:100386002AF0ED91FD913196FE93EE9306C0AA8177
:10039600BB81EFEFFFEFED93FC9319810881259662
:1003A6000895BA93AA9326970E94ED0310E0AC85B0
:1003B600BD85E0E0F0E0ED93FC93EA89FB89319698
:1003C600EA8BFB8B3197E4912E2FE03009F415C1AF
:1003D600E12FE03039F4253211F411E002C00E9419
:1003E6007C030AC1E130A9F4253219F40E947C038A
:1003F60002C112E040E000E02D3211F401E0FCC041
:100406002B3211F44BE2F8C0203211F440E2F4C072
:1004160002C0E23039F450E013E0203311F40068F2
:10042600EBC003C0E33009F0E7C0203310F02A33F5
:1004360008F007C0AAE05A9F502DE22FE0535E0F46
:10044600DBC0E22FE33649F40E948303E889F98989
:10045600A481AA930E948903CEC0E33741F40E9487
:1004660083030E948F030E943C031E2F0AC0E037BD
:1004760061F40E9483030E948F030E9448031E2F8B
:10048600086002600F7730E034C0E43611F0E936D8
:1004960011F4046002C0E53731F4E4E5F0E0EE83E0
:1004A600FF8315E00CC0E83511F4086003C0E83797
:1004B60009F0A1C0EEE5F0E0EE83FF8314E002FF51
:1004C60014C00E9483030E949903AB85AA233AF4C1
:1004D600EA85FB850E94B603EA87FB874DE240303A
:1004E60011F01F5F01C00B7F04C00E9483030E94AE
:1004F600990300FD11C0151778F407FF08C002FF25
:1005060004C00B7F242F115001C020E301C020E25C
:100516000E947C035150EFCF312F01FF17C03030BE
:10052600A1F003FF06C0EE81FF812591EE83FF83D4
:1005360005C0AE81BF812D91AE83BF830E947C032F
:10054600503009F051503150EACF4BC020E3EE81D4
:10055600FF810E94E403E887F987EE81FF813296E6
:10056600EE83FF83E885F985AA85BB85AE17BF07AD
:1005760050F02F5FA885B985EA85FB85EA1BFB0B42
:10058600EA87FB87EFCF2A3328F003FF02C0295FF3
:1005960001C0295D04FD1AC0213320F4A885B98560
:1005A600119709F409C0531710F000FF01C013C0DA
:1005B60020E207FF0BC020E3006102FF07C00B7FAC
:1005C6004A930E948903503009F051500E947C03DF
:1005D600503009F051503150A885B985129708F06E
:1005E600B5CF00FF08C0503031F05150E0E2EA9339
:1005F6000E948903F8CF10E0E0CEAC85BD850E944D
:10060600E0030E94F40364960895FF92F82E26975D
:100616000E94EF030E94A103309719F4EFEFFFEF5A
:1006260023C0DE0116960E94B2038D010E94A1032B
:10063600EE83FF83E0E0E887E987DE011A960E94F1
:10064600B2030E94E003FA93EA931A930A93E4E949
:10065600F1E0FA93EA93DE011A96A3DE9F01AE81DA
:10066600BF81E0E0EC93F9010E94F6032A96FF9021
:100676000895BA93AA93A991B991EE27FF276D9190
:10068600662311F03196FBCF0895BA93AA93AA2751
:10069600BB27E991F9910590002011F01196FBCF47
:1006A600FD010895EA93A1E00C942401EAE6F2E044
:1006B600FA93EA93E8E7F0E0FA93EA9308950E9442
:1006C600BA030E94E80384E00E9408032896AAE67B
:1006D600B2E00C9454010E941801A3E0B0E00C941F
:1006E600A803A0E30E94040188EC90E00197F1F7CB
:1006F60008952A93AD85BE85EF85F88909950895F5
:10070600E889F9893497E88BF98B0895AD85BE851C
:10071600EF85F88909950895A889B98914960E94E4
:10072600E003EE83FF83AE81BF810895A889B9896E
:1007360014960E94E003EA87FB870895DE011C9663
:100746000E94B2030E94E0030895109639F080EDEE
:1007560097E00197F1F7A8951197C9F70895002436
:10076600AF0DB01D0895F195E195F04008956F2FF6
:10077600660F660B762F08950024112490E1AA0FC8
:10078600BB1F001C111C0E1A1F0A18F40E0E1F1E8A
:1007960001C0A1609A9599F7FD01D0010895E894EA
:1007A600B7FF04C0A095B09511966894F7FDDBDFFE
:1007B600E3DFFD010EF4D7DF0895ED91FC9111976B
:1007C60008950590F491E02D08957A936A93FA932B
:1007D600EA9308955A934A933A932A931A930A935B
:1007E60008955D814C813B812A8119810881089594
:00000001FF
