:0A0000000C943E000C9400000C94D8
:10000A0000000C9400000C9400000C9400000C9466
:10001A0000000C9487000C9400000C9400000C94CF
:10002A006B000C9400000C9400000C9400000C94DB
:10003A0000000C9400000C9400000C9400000C9436
:10004A0000000C9400000C94000000000200030061
:10005A00050008003F065B4F666D7D077F6F020053
:10006A00040054000700600256000A006C025E0099
:10007A000000F894EE27ECBBF1E0FBBFEBBFE5BF55
:10008A008DE0A2E0BB27ED938A95E9F780E098E03E
:10009A00A0E6ED930197E9F7E8E6F0E085919591FE
:1000AA00009761F0A591B59105901590BF01F001F7
:1000BA0005900D920197E1F7FB01F0CFEFE5EDBF57
:1000CA00E8E0EEBFC0E6D2E00C94F8000A921A9279
:1000DA009A93AA93BA93EA93FA93EFB7EA93F2013F
:1000EA0031962F01D201E6E0F0E00E94AA012F0129
:1000FA00E991EFBFF991E991B991A9919991199073
:10010A0009901895AA93BA93EA93FA93EFB7EA93E8
:10011A00EBD03196E0936A02F0936B02E5D0EA30B5
:10012A00A0E0FA0709F058C0EAE6F2E0E2D0E6D029
:10013A003196E0936802F0936902E0D0E630A0E0DD
:10014A00FA0709F049C0E8E6F2E0D3D0DCD03196EC
:10015A00E0936602F0936702D6D0EA30A0E0FA078D
:10016A00D9F5E6E6F2E0C5D0D3D03196E093640241
:10017A00F0936502CDD0E630A0E0FA0769F5E4E62F
:10018A00F2E0B7D0CAD03196E0936202F0936302EC
:10019A00C4D0349731F4A0916002B09161021297F1
:1001AA0009F009C0E2E6F2E0A4D0E0E0E0936002E0
:1001BA00E093610211C0B1D0EA30A0E0FA0761F41D
:1001CA00E2E6F2E096D0E0916002F09161023196A7
:1001DA00E0936002F0936102E991EFBFF991E9912E
:1001EA00B991A9911895E0E0EBBBEABBE8BBE7BB84
:1001FA00E5BBEFEFE4BBE0E0E2BBEFEFE1BBECE035
:10020A00E3BFE0E0E2BFE3E6ECBFE0E0EFBDECE035
:10021A00EEBDE0E0EDBDECBDE7BDE6BDEAE7EBBD56
:10022A00E2E1EABDE0E0E9BDE8BDE5BDE4BDE3BD6C
:10023A00E5BFE4BFE2E1E9BFE0E8E8B9E0E0E0BF3A
:10024A0078942297E0E0E883E9834ED0E17021F4C4
:10025A00E0E8F0E0E883F983042C052851F4EEEF96
:10026A00E2BBE0916002F0916102E459FD4FE08146
:10027A0037C0E1E0F0E0E415F50521F4EDEFE2BB6B
:10028A004CD029C0E2E0F0E0E415F50539F4EBEFD3
:10029A00E2BB3ED0E459FD4FE08122C0E3E0F0E04A
:1002AA00E415F50521F4E7EFE2BB2DD014C0E4E034
:1002BA00F0E0E415F50539F4EFEEE2BB1FD0E4599E
:1002CA00FD4FE0810DC0E5E0F0E0E415F50549F4E5
:1002DA00EFEDE2BB09D0E459FD4FE081A881EA2B9A
:1002EA00E5BB2296AECFFFCFE0916A02F0916B0296
:1002FA000895A0E0B0E0A083B1830895E091680278
:10030A00F09169020895E0916602F09167020895FA
:10031A00E0916402F09165020895E0916202F09121
:10032A00630208950024112490E1AA0FBB1F001C48
:10033A00111C0E1A1F0A18F40E0E1F1E01C0A1600E
:10034A009A9599F7FD01D0010895ECDFFD01089512
:00000001FF
