:020000020000FC
:020000000EC030
:10001C004EC008E00EBF0FE50DBF0FEF04BB01BBD8
:10002C000BBB00E00ABB07BB09B3003029F040E072
:10003C0050E060E070E005C049E059E069E079E02B
:10004C0000C090E09FBD9CE09EBD9AE79BBD92E1F5
:10005C009ABD92E199BF78940EE002BB072F0E94E3
:10006C008B0005BB0E9453000DE002BB062F0E94C3
:10007C008B0005BB0E9453000BE002BB052F0E94B6
:10008C008B0005BB0E94530007E002BB042F0E94AB
:10009C008B0005BB0E945300DFCF1FEF21E031E046
:1000AC003A95F1F72A95D9F71A95C1F7089509B33E
:1000BC000030B1F000C0493011F04395189540E084
:1000CC00593011F05395189550E0693011F0639543
:1000DC00189560E0793011F07395189570E01895CB
:1000EC00403011F04A95189549E0503011F05A956E
:1000FC00189559E0603011F06A95189569E07030E8
:10010C0011F06A95189579E01895003011F40FE309
:10011C000895013011F406E00895023011F40BE556
:10012C000895033011F40FE40895043011F406E639
:10013C000895053011F40DE60895063011F40DE71D
:10014C000895073011F407E00895083011F40FE713
:0A015C000895093009F40FE6089534
:00000001FF
