:080000000C9448000C94000070
:100008000C9400000C9400000C9400000C94000068
:100018000C9400000C9400000C9400000C94000058
:100028000C9400000C9400000C9400000C94000048
:100038000C9400000C9400000C9400000C94000038
:100048000C9400000C9400000C94000054494D4599
:10005800202D3E20003A0044415445202D3E2000EA
:100068002D003230000080C001002D4E414E004965
:100078004E460000020060026800020062026E0044
:100088000100680270000000F894EE27ECBBF1E074
:10009800FBBFEBBFE5BF8DE0A2E0BB27ED938A95E0
:1000A800E9F780E098E0A0E6ED930197E9F7ECE73F
:1000B800F0E085919591009761F0A591B591059033
:1000C8001590BF01F00105900D920197E1F7FB0132
:1000D800F0CFEFE5EDBFE8E0EEBFC0E6D2E00C946C
:1000E8007500EFEFEABBE0E0EBBBE7BBE8BBE4BBC6
:1000F800E5BBE1BBE2BB0E945102E0E0EA93EA9370
:10010800A0E054D0A4E117D1E5E0F0E0FA93EA9337
:10011800E4E0F0E0FA93EA93A7E0B0E060D0E6E02C
:10012800F0E0FA93EA93E9E0F0E0FA93EA93E8E082
:10013800F0E0FA93EA93ABE0B0E06AD0E0E0EA934B
:10014800A0E0A1D0A4E5B0E0E3D0E52D0E9409022B
:10015800E42D0E940902E72D0E941602E0E0EA93CE
:10016800A2E091D0AFE5B0E0D3D0E82D0E9416020E
:10017800A8E6B0E0CDD0E92D0E941602A0E6B2E0D4
:10018800B8D0AAE6B0E0C4D0EB2D0E941602A8EEC3
:10019800B3E00E94A202EBE37E1628F44E1618F490
:1001A800E8E15E1608F07ED0AFCFFFCFAA93EA81D0
:1001B800E370EA83E981E03019F0EA81E061EA83DB
:1001C800E881E03019F0EA81E068EA830E941F02C2
:1001D800A7E00E948A02AA810E942402AAC0BA93B8
:1001E800AA930E941F02A0E00E9424020E942802F3
:1001F8000E9430020E9437020E943D02AE2F0E94E8
:10020800FC01AC81BD81EC930E946502269608959D
:10021800BA93AA930E941F02A3E00E9424020E949C
:100228002802AE81BF81EC930E943702AC81BD8168
:10023800EC930E9437020E943D020E9430020E9405
:10024800650228960895AA93E2B3EF70AE2FE8816D
:10025800E07FEA2BE2BB8DE08A95F1F7929A8DE078
:100268008A95F1F792988DE08A95F1F791C0AA9353
:10027800A881E9DFE881E295E883A881E4DF85E8E1
:100288008A95F1F785C0AA93E881F0E0EE59FD4F11
:10029800E081A981AE0FEBDFA980E881E0936602D7
:1002A80022960895A2E00E944302ACE0E0DFA1E0BC
:1002B8000E944302E0E0E0936602AE2E0895AA93FE
:1002C800A881AA3021F0E0916702AE1660F0E0E064
:1002D800EA93A0916602AF5FA0936602D4DFA8817B
:1002E800AA3009F455C0A394909AA881C0DF9098C9
:1002F8004FC0BA93AA931A93A981BA81ED91A983A1
:10030800BA831E2FE03019F0A12FD9DFF5CF10C026
:10031800BA93AA931A93E981FA813196E983FA8309
:100328003197E4911E2FE03019F0A12FC8DFF3CFE9
:10033800188123960895AA93E1B3E06FE1BB8A9AE6
:10034800889A899A929890989198E881E0936702A0
:10035800E058E0936402E881E054E0936502A4E188
:10036800B0E00E94A2020E9449020E9449020E9433
:100378004902A0E268DF88EC90E00197F1F7A8E273
:1003880076DFA4E074DFA5E872DFA6E070DF8ADF1D
:1003980021960895BA93AA93A991B991E991F991EF
:1003A80030962AF4E095F09531966DE26D93E894D5
:1003B80080E197E20DD088EE93E00AD084E6992791
:1003C80007D08AE005D06E2F10D066276C93089569
:1003D8006627E817F90720F06395E81BF90BC9F7BA
:1003E800662311F416F008956894605D6D9308957E
:1003F800AA93E881E295EF70AE2FAA0FAA0FEA0F31
:10040800EE0FA991AF70EA0F0895F0E0FA93EA931E
:10041800D6010E94CE01D6010E947D01ADE5B0E073
:100428000C948C01F0E0FA93EA93D6010E94CE0175
:10043800D6010C947D010E945602A0ED0C948A020C
:100448000E948A020C9465020E945602A1ED0E9445
:100458008A02A1E00C946F02AE2F0E94FC01A881D1
:10046800B981EC930895A1E00E946F02AE2F0C941D
:10047800FC01AA81BB81EC93A0E00C946F020E945E
:100488003B01A3E0B0E00C94A202A0E30E94270184
:1004980088EC90E00197F1F70895A898A998A09A98
:1004A800A19815C0A198A098EE270000999B0895DF
:1004B800989B089504D0A19A02D0A09AE1E06DE03B
:1004C80007C0A19AA09A03D0A098F9DFA1986BE180
:1004D8006A95F1F7089578E0A098F1DF989BFECF30
:1004E800EEDF889499990894A09AF1DFEE1F7A9527
:1004F80099F77A2F772311F4A19801C0A19ADFDF29
:10050800A098E5DFA09ADBDFA198D9CF78E0AA0F01
:1005180010F4A19801C0A19ADADFA098D0DF989BC7
:10052800FECFCDDFA09A7A9591F7A198C8DFA09861
:10053800CEDFE1E09999EE27A09AC1CF109639F065
:1005480080ED97E00197F1F7A8951197C9F70895FD
:00000001FF
